:100000000C9462000C948A000C948A000C948A0070
:100010000C948A000C948A000C948A000C948A0038
:100020000C948A000C948A000C948A000C948A0028
:100030000C948A000C948A000C948A000C948A0018
:100040000C94FD000C948A000C9413030C945A0336
:100050000C948A000C948A000C948A000C948A00F8
:100060000C948A000C948A000000000024002700F1
:100070002A0000000000250028002B0000000000DE
:1000800023002600290004040404040404040202DA
:100090000202020203030303030301020408102007
:1000A0004080010204081020010204081020000012
:1000B0000007000201000003040600000000000029
:1000C0000000C00411241FBECFEFD8E0DEBFCDBFBB
:1000D00011E0A0E0B1E0E0E1FDE002C005900D928A
:1000E000A831B107D9F711E0A8E1B1E001C01D9234
:1000F000A83CB107E1F710E0C4ECD0E004C02297BF
:10010000FE010E948206C23CD107C9F70E94100579
:100110000C9486060C940000CF92DF92EF92FF922F
:100120000F931F9387E061E00E94E30187E060E0A6
:100130000E94220282E090E00E949E0187E061E03E
:100140000E9422028AE090E00E949E0187E060E027
:100150000E94220286E060E00E94E30186E061E006
:1001600020E432E44FE050E00E947602F62EE72EC3
:10017000D82EC92E09EA11E024E930E040E050E031
:100180000E946506C801BA01A9012AE030E00E9478
:10019000E105C80160E071E00E9421066F2D7E2D0F
:1001A0008D2D9C2D2AE330E040E050E00E94650652
:1001B000C801BA01A9012AE030E00E94E105C801A6
:1001C00065E071E00E942106C8010E94490564E6CD
:1001D00070E080E090E00E9445011F910F91FF9038
:1001E000EF90DF90CF90089589EA91E040E855E2E2
:1001F00060E070E00E94950308951F920F920FB681
:100200000F9211242F933F938F939F93AF93BF939C
:1002100080911C0190911D01A0911E01B0911F01C0
:10022000309120010196A11DB11D232F2D5F2D3787
:1002300020F02D570196A11DB11D20932001809320
:100240001C0190931D01A0931E01B0931F0180918A
:10025000180190911901A0911A01B0911B0101960A
:10026000A11DB11D8093180190931901A0931A014B
:10027000B0931B01BF91AF919F918F913F912F91AF
:100280000F900FBE0F901F9018959B01AC017FB788
:10029000F8948091180190911901A0911A01B091E0
:1002A0001B0166B5A89B05C06F3F19F00196A11D03
:1002B000B11D7FBFBA2FA92F982F8827860F911DB8
:1002C000A11DB11D62E0880F991FAA1FBB1F6A956F
:1002D000D1F7BC012DC0FFB7F8948091180190911F
:1002E0001901A0911A01B0911B01E6B5A89B05C0A8
:1002F000EF3F19F00196A11DB11DFFBFBA2FA92F25
:10030000982F88278E0F911DA11DB11DE2E0880F47
:10031000991FAA1FBB1FEA95D1F7861B970B885E12
:100320009340C8F2215030404040504068517C4FCB
:10033000211531054105510571F60895019739F0F0
:10034000880F991F880F991F02970197F1F7089559
:10035000789484B5826084BD84B5816084BD85B5A0
:10036000826085BD85B5816085BDEEE6F0E0808167
:1003700081608083E1E8F0E0108280818260808388
:10038000808181608083E0E8F0E08081816080830B
:10039000E1EBF0E0808184608083E0EBF0E080813D
:1003A00081608083EAE7F0E08081846080838081DF
:1003B0008260808380818160808380818068808387
:1003C0001092C1000895CF93DF93482F50E0CA01E7
:1003D00086569F4FFC0134914A575F4FFA01849132
:1003E000882369F190E0880F991FFC01E859FF4FBD
:1003F000A591B491FC01EE58FF4FC591D4916623AD
:1004000051F42FB7F8948C91932F909589238C9366
:10041000888189230BC0623061F42FB7F8948C91E6
:10042000932F909589238C938881832B88832FBF6A
:1004300006C09FB7F8948C91832B8C939FBFDF915C
:10044000CF910895482F50E0CA0182559F4FFC017B
:100450002491CA0186569F4FFC0194914A575F4FE1
:10046000FA013491332309F440C0222351F123309F
:1004700071F0243028F42130A1F0223011F514C09D
:100480002630B1F02730C1F02430D9F404C0809177
:1004900080008F7703C0809180008F7D80938000E3
:1004A00010C084B58F7702C084B58F7D84BD09C02C
:1004B0008091B0008F7703C08091B0008F7D8093D2
:1004C000B000E32FF0E0EE0FFF1FEE58FF4FA591B5
:1004D000B4912FB7F894662321F48C9190958923D9
:1004E00002C08C91892B8C932FBF08958F929F927D
:1004F000AF92BF92CF92DF92EF92FF920F931F9332
:10050000CF93DF93A82FB0E0CD0186569F4FFC011B
:100510008490AA57BF4FFD018491662311F499245A
:1005200001C0982C6FEFA62E6FEFB62E6FEFC62E80
:100530006FE0D62EA222B322C422D522682F70E00B
:10054000660F771F64587F4FEE24FF248701FB015D
:10055000A591B4910BC0EA14FB040C051D0509F428
:100560004EC00894E11CF11C011D111D8C918821C5
:10057000891589F30CC0EA14FB040C051D0509F468
:100580003EC00894E11CF11C011D111D03C0FB01BC
:10059000A591B4918C918821891569F720E030E00C
:1005A00040E050E0FB01C591D4910FC0DA01C901D0
:1005B0008E0D9F1DA01FB11F8A159B05AC05BD05A3
:1005C000F1F02F5F3F4F4F4F5F4F88818821891592
:1005D00069F3CA01B90125E130E040E050E00E9432
:1005E00024069B01AC01205F3F4F4F4F5F4F84E0DB
:1005F00056954795379527958A95D1F704C020E001
:1006000030E040E050E0B901CA01DF91CF911F9185
:100610000F91FF90EF90DF90CF90BF90AF909F90A1
:100620008F90089508951F920F920FB60F92112484
:100630002F933F934F938F939F93EF93FF9340910B
:10064000C60020916101309162012F5F3F4F2F73EF
:10065000307080916301909164012817390759F037
:10066000E0916101F0916201EF5DFE4F40833093B4
:10067000620120936101FF91EF919F918F914F91C2
:100680003F912F910F900FBE0F901F901895E09102
:10069000B501F091B601E05CFF4F8191919120810D
:1006A0003181821B930B8F739070892B11F00E9404
:1006B000120308951F920F920FB60F9211242F93D9
:1006C0003F938F939F93EF93FF932091A5013091D8
:1006D000A6018091A7019091A8012817390731F44C
:1006E0008091C1008F7D8093C10014C0E091A7016B
:1006F000F091A801EB59FE4F20818091A7019091C4
:10070000A80101968F7390709093A8018093A70120
:100710002093C600FF91EF919F918F913F912F9170
:100720000F900FBE0F901F901895AF92BF92DF925F
:10073000EF92FF920F931F93CF93DF93EC017A0117
:100740008B01DD24403081EE580780E0680780E0AF
:10075000780711F0DD24D39491E0A92EB12CEC8917
:10076000FD89DD2069F0C5010E8C02C0880F991F3C
:100770000A94E2F7808360E079E08DE390E005C0C1
:10078000108260E874E88EE190E0A80197010E9471
:10079000430621503040404050405695479537958C
:1007A000279580E12030380720F0DD2011F0DD248E
:1007B000D6CFE889F9893083EA89FB892083EE89DD
:1007C000FF89408121E030E0C9010A8C02C0880F16
:1007D000991F0A94E2F7482B4083EE89FF894081F4
:1007E000C9010B8C02C0880F991F0A94E2F7482BAD
:1007F0004083EE89FF894081C9010C8C02C0880FBB
:10080000991F0A94E2F7482B4083EE89FF89808183
:100810000D8C02C0220F331F0A94E2F72095282383
:100820002083DF91CF911F910F91FF90EF90DF9088
:10083000BF90AF900895DC011C96ED91FC911D973F
:10084000E05CFF4F2191319180819181281B390B10
:100850002F733070C9010895DC011C96ED91FC9155
:100860001D97E05CFF4F20813181E054F040DF01B3
:10087000AE5BBF4F8D919C9111972817390719F4E2
:100880002FEF3FEF07C08D919C91E80FF91F8081FA
:10089000282F30E0C9010895DC011C96ED91FC91F0
:1008A0001D97E05CFF4F20813181E054F040DF0173
:1008B000AE5BBF4F8D919C9111972817390719F4A2
:1008C0002FEF3FEF10C08D919C911197E80FF91F0A
:1008D00020818D919C91119701968F739070119644
:1008E0009C938E9330E0C9010895FC01868597851D
:1008F000DC01A05CBF4FFC01EE5BFF4F2D913C91F2
:1009000011978081918128173907C1F70895CF93F6
:10091000DF93EC01EE85FF85E05CFF4F20813181A4
:10092000E054F0402F5F3F4F2F733070DF01AE5B1C
:10093000BF4F8D919C91119728173907D1F3E05C37
:10094000FF4F80819181E054F040E80FF91F6083F0
:10095000EE85FF85E05CFF4F31832083EE89FF89C0
:10096000208181E090E00D8C02C0880F991F0A94CD
:10097000E2F7282B208381E090E0DF91CF9108956A
:100980001092AC011092AB0188EE93E0A0E0B0E0D1
:100990008093AD019093AE01A093AF01B093B001ED
:1009A0008CE091E09093AA018093A90181E291E00B
:1009B0009093B6018093B50185E691E09093B801DC
:1009C0008093B70185EC90E09093BA018093B901D0
:1009D00084EC90E09093BC018093BB0180EC90E0AC
:1009E0009093BE018093BD0181EC90E09093C00193
:1009F0008093BF0186EC90E09093C2018093C10187
:100A000084E08093C30183E08093C40187E08093F6
:100A1000C50185E08093C60181E08093C7010895F8
:100A2000CF93DF930E94A8010E94F400C7E4D3E0B3
:100A30000E948C002097E1F30E944703F9CFCF92E8
:100A4000DF92EF92FF920F931F93CF93DF937C017E
:100A50006B018A01C0E0D0E00FC0D6016D916D013D
:100A6000D701ED91FC910190F081E02DC70109952E
:100A7000C80FD91F015010400115110571F7CE01A3
:100A8000DF91CF911F910F91FF90EF90DF90CF906A
:100A90000895EF92FF920F931F938C01DC01ED916B
:100AA000FC910190F081E02D6DE009957C01D80169
:100AB000ED91FC910190F081E02DC8016AE009956B
:100AC0009C012E0D3F1DC9011F910F91FF90EF90CA
:100AD0000895CF93DF93DB010D900020E9F7119784
:100AE000A61BB70BEC01E881F9810280F381E02DB0
:100AF000AD010995DF91CF9108954F925F927F925A
:100B00008F929F92AF92BF92CF92DF92EF92FF921D
:100B10000F931F93DF93CF93CDB7DEB7A1970FB697
:100B2000F894DEBF0FBECDBF2C01742ECB01223056
:100B300008F42AE019A231E2C32ED12CCC0EDD1E1E
:100B4000822E9924AA24BB24672D752FA501940118
:100B50000E94430679018A01C801B701A5019401E9
:100B60000E942406472D461B0894C108D1084A302C
:100B700014F4405D01C0495CF6014083E114F104C6
:100B80000105110521F07E2C5F2DC801DDCFC201CA
:100B9000B6010E946905A1960FB6F894DEBF0FBE9C
:100BA000CDBFCF91DF911F910F91FF90EF90DF901C
:100BB000CF90BF90AF909F908F907F905F904F901D
:100BC0000895CF92DF92EF92FF920F931F93CF93EE
:100BD000DF93EC016A017B012115310541F4E881C5
:100BE000F9810190F081E02D642F09951FC02A3012
:100BF0003105D1F477FF17C0E881F9810190F081C8
:100C0000E02D6DE209958C0144275527BA014C1956
:100C10005D096E097F09CE012AE00E947D059801D9
:100C2000280F391F04C02AE00E947D059C01C901DC
:100C3000DF91CF911F910F91FF90EF90DF90CF90B8
:100C400008950E9469050895629FD001739FF00185
:100C5000829FE00DF11D649FE00DF11D929FF00D4C
:100C6000839FF00D749FF00D659FF00D9927729F83
:100C7000B00DE11DF91F639FB00DE11DF91FBD010E
:100C8000CF0111240895A1E21A2EAA1BBB1BFD015E
:100C90000DC0AA1FBB1FEE1FFF1FA217B307E4075B
:100CA000F50720F0A21BB30BE40BF50B661F771FB3
:100CB000881F991F1A9469F7609570958095909593
:100CC0009B01AC01BD01CF01089597FB092E0526BC
:100CD0000ED057FD04D0D7DF0AD0001C38F4509551
:100CE0004095309521953F4F4F4F5F4F0895F6F750
:100CF00090958095709561957F4F8F4F9F4F089588
:100D0000EE0FFF1F0590F491E02D0994F894FFCFAA
:100D1000696E2C2000636D000000000087041F0531
:080D20001B044C042C047504B3
:00000001FF
